{
  "contractName": "CourseMarketplace",
  "abi": [
    {
      "inputs": [],
      "stateMutability": "nonpayable",
      "type": "constructor"
    },
    {
      "inputs": [],
      "name": "CourseHasOwner",
      "type": "error"
    },
    {
      "inputs": [],
      "name": "OnlyOwner",
      "type": "error"
    },
    {
      "inputs": [
        {
          "internalType": "bytes16",
          "name": "courseId",
          "type": "bytes16"
        },
        {
          "internalType": "bytes32",
          "name": "proof",
          "type": "bytes32"
        }
      ],
      "name": "purchaseCourse",
      "outputs": [],
      "stateMutability": "payable",
      "type": "function",
      "payable": true
    },
    {
      "inputs": [],
      "name": "getCourseCount",
      "outputs": [
        {
          "internalType": "uint256",
          "name": "",
          "type": "uint256"
        }
      ],
      "stateMutability": "view",
      "type": "function",
      "constant": true
    },
    {
      "inputs": [
        {
          "internalType": "uint256",
          "name": "index",
          "type": "uint256"
        }
      ],
      "name": "getCourseHashAtIndex",
      "outputs": [
        {
          "internalType": "bytes32",
          "name": "",
          "type": "bytes32"
        }
      ],
      "stateMutability": "view",
      "type": "function",
      "constant": true
    },
    {
      "inputs": [
        {
          "internalType": "bytes32",
          "name": "courseHash",
          "type": "bytes32"
        }
      ],
      "name": "getCourseByHash",
      "outputs": [
        {
          "components": [
            {
              "internalType": "uint256",
              "name": "id",
              "type": "uint256"
            },
            {
              "internalType": "uint256",
              "name": "price",
              "type": "uint256"
            },
            {
              "internalType": "bytes32",
              "name": "proof",
              "type": "bytes32"
            },
            {
              "internalType": "address",
              "name": "owner",
              "type": "address"
            },
            {
              "internalType": "enum CourseMarketplace.State",
              "name": "state",
              "type": "uint8"
            }
          ],
          "internalType": "struct CourseMarketplace.Course",
          "name": "",
          "type": "tuple"
        }
      ],
      "stateMutability": "view",
      "type": "function",
      "constant": true
    },
    {
      "inputs": [],
      "name": "getContractOwner",
      "outputs": [
        {
          "internalType": "address",
          "name": "",
          "type": "address"
        }
      ],
      "stateMutability": "view",
      "type": "function",
      "constant": true
    },
    {
      "inputs": [
        {
          "internalType": "address",
          "name": "newOwner",
          "type": "address"
        }
      ],
      "name": "changeOwner",
      "outputs": [],
      "stateMutability": "nonpayable",
      "type": "function"
    }
  ],
  "bytecode": "0x608060405234801561001057600080fd5b506100203361002560201b60201c565b610069565b80600360006101000a81548173ffffffffffffffffffffffffffffffffffffffff021916908373ffffffffffffffffffffffffffffffffffffffff16021790555050565b610b3e806100786000396000f3fe6080604052600436106100555760003560e01c8063442890d51461005a57806362e4e6ac146100855780636d11290b146100c257806396cfda06146100ff578063a6f9dae11461012a578063d76821cb14610153575b600080fd5b34801561006657600080fd5b5061006f61016f565b60405161007c91906108b3565b60405180910390f35b34801561009157600080fd5b506100ac60048036038101906100a79190610736565b610199565b6040516100b991906108e9565b60405180910390f35b3480156100ce57600080fd5b506100e960048036038101906100e4919061075f565b6102c1565b6040516100f691906108ce565b60405180910390f35b34801561010b57600080fd5b506101146102dd565b6040516101219190610904565b60405180910390f35b34801561013657600080fd5b50610151600480360381019061014c91906106d1565b6102e7565b005b61016d600480360381019061016891906106fa565b61035f565b005b6000600360009054906101000a900473ffffffffffffffffffffffffffffffffffffffff16905090565b6101a16105fd565b600160008381526020019081526020016000206040518060a00160405290816000820154815260200160018201548152602001600282015481526020016003820160009054906101000a900473ffffffffffffffffffffffffffffffffffffffff1673ffffffffffffffffffffffffffffffffffffffff1673ffffffffffffffffffffffffffffffffffffffff1681526020016003820160149054906101000a900460ff16600281111561027e577f4e487b7100000000000000000000000000000000000000000000000000000000600052602160045260246000fd5b60028111156102b6577f4e487b7100000000000000000000000000000000000000000000000000000000600052602160045260246000fd5b815250509050919050565b6000806000838152602001908152602001600020549050919050565b6000600254905090565b6102ef61016f565b73ffffffffffffffffffffffffffffffffffffffff163373ffffffffffffffffffffffffffffffffffffffff1614610353576040517f5fc483c500000000000000000000000000000000000000000000000000000000815260040160405180910390fd5b61035c8161054b565b50565b60008233604051602001610374929190610887565b6040516020818303038152906040528051906020012090506103958161058f565b156103cc576040517fb0fc2d9700000000000000000000000000000000000000000000000000000000815260040160405180910390fd5b6000600260008154809291906103e1906109b6565b91905055905081600080838152602001908152602001600020819055506040518060a001604052808281526020013481526020018481526020013373ffffffffffffffffffffffffffffffffffffffff16815260200160006002811115610471577f4e487b7100000000000000000000000000000000000000000000000000000000600052602160045260246000fd5b8152506001600084815260200190815260200160002060008201518160000155602082015181600101556040820151816002015560608201518160030160006101000a81548173ffffffffffffffffffffffffffffffffffffffff021916908373ffffffffffffffffffffffffffffffffffffffff16021790555060808201518160030160146101000a81548160ff0219169083600281111561053d577f4e487b7100000000000000000000000000000000000000000000000000000000600052602160045260246000fd5b021790555090505050505050565b80600360006101000a81548173ffffffffffffffffffffffffffffffffffffffff021916908373ffffffffffffffffffffffffffffffffffffffff16021790555050565b60003373ffffffffffffffffffffffffffffffffffffffff166001600084815260200190815260200160002060030160009054906101000a900473ffffffffffffffffffffffffffffffffffffffff1673ffffffffffffffffffffffffffffffffffffffff16149050919050565b6040518060a00160405280600081526020016000815260200160008019168152602001600073ffffffffffffffffffffffffffffffffffffffff16815260200160006002811115610677577f4e487b7100000000000000000000000000000000000000000000000000000000600052602160045260246000fd5b81525090565b60008135905061068c81610aac565b92915050565b6000813590506106a181610ac3565b92915050565b6000813590506106b681610ada565b92915050565b6000813590506106cb81610af1565b92915050565b6000602082840312156106e357600080fd5b60006106f18482850161067d565b91505092915050565b6000806040838503121561070d57600080fd5b600061071b85828601610692565b925050602061072c858286016106a7565b9150509250929050565b60006020828403121561074857600080fd5b6000610756848285016106a7565b91505092915050565b60006020828403121561077157600080fd5b600061077f848285016106bc565b91505092915050565b6107918161091f565b82525050565b6107a08161091f565b82525050565b6107b76107b28261091f565b6109ff565b82525050565b6107ce6107c982610931565b610a11565b82525050565b6107dd8161095d565b82525050565b6107ec8161095d565b82525050565b6107fb816109a4565b82525050565b60a0820160008201516108176000850182610869565b50602082015161082a6020850182610869565b50604082015161083d60408501826107d4565b5060608201516108506060850182610788565b50608082015161086360808501826107f2565b50505050565b6108728161099a565b82525050565b6108818161099a565b82525050565b600061089382856107bd565b6010820191506108a382846107a6565b6014820191508190509392505050565b60006020820190506108c86000830184610797565b92915050565b60006020820190506108e360008301846107e3565b92915050565b600060a0820190506108fe6000830184610801565b92915050565b60006020820190506109196000830184610878565b92915050565b600061092a8261097a565b9050919050565b60007fffffffffffffffffffffffffffffffff0000000000000000000000000000000082169050919050565b6000819050919050565b600081905061097582610a98565b919050565b600073ffffffffffffffffffffffffffffffffffffffff82169050919050565b6000819050919050565b60006109af82610967565b9050919050565b60006109c18261099a565b91507fffffffffffffffffffffffffffffffffffffffffffffffffffffffffffffffff8214156109f4576109f3610a2d565b5b600182019050919050565b6000610a0a82610a1b565b9050919050565b6000819050919050565b6000610a2682610a8b565b9050919050565b7f4e487b7100000000000000000000000000000000000000000000000000000000600052601160045260246000fd5b7f4e487b7100000000000000000000000000000000000000000000000000000000600052602160045260246000fd5b60008160601b9050919050565b60038110610aa957610aa8610a5c565b5b50565b610ab58161091f565b8114610ac057600080fd5b50565b610acc81610931565b8114610ad757600080fd5b50565b610ae38161095d565b8114610aee57600080fd5b50565b610afa8161099a565b8114610b0557600080fd5b5056fea2646970667358221220c21eac08bd1d3361c902098ae8f3033de5efd37a890975904b05fc7b42351b5464736f6c63430008040033",
  "immutableReferences": {},
  "source": "// SPDX-License-Identifier: GPL-3.0\r\npragma solidity >=0.4.22 <0.9.0;\r\ncontract CourseMarketplace {\r\n  \r\n  enum State {\r\n    Purchased,\r\n    Activated,\r\n    Deactivated\r\n  }\r\n\r\n  // mapping of course id t course hash\r\n  mapping(uint => bytes32) private ownedCourseHash;\r\n\r\n  // mapping of courseHash to course data\r\n  mapping(bytes32 => Course) private ownedCourses;\r\n\r\n  uint private totalOwnedCourses;\r\n\r\n  /// Course already has a Owner\r\n  error CourseHasOwner();\r\n\r\n  /// onl Owner has access\r\n  error OnlyOwner();\r\n\r\n  modifier onlyOwner() {\r\n    if (msg.sender != getContractOwner()) {\r\n      revert OnlyOwner();\r\n    }\r\n    _;\r\n  }\r\n\r\n  address payable private owner;\r\n\r\n  constructor(){\r\n    setContractOwner(msg.sender);\r\n  }\r\n\r\n  struct Course {\r\n    uint id; // 32\r\n    uint price; // 32\r\n    bytes32 proof; // 32\r\n    address owner; // 20\r\n    State state; // 1\r\n  }\r\n\r\n  function purchaseCourse(\r\n    bytes16 courseId,\r\n    bytes32 proof\r\n  )\r\n    external\r\n    payable\r\n  {\r\n    bytes32 courseHash = keccak256(abi.encodePacked(courseId, msg.sender));\r\n\r\n    if(hasCourseOwnership(courseHash)){\r\n      revert CourseHasOwner();\r\n    }\r\n    uint id = totalOwnedCourses++;\r\n\r\n    ownedCourseHash[id]=courseHash;\r\n    ownedCourses[courseHash]=Course({\r\n      id: id,\r\n      price: msg.value,\r\n      proof: proof,\r\n      owner: msg.sender,\r\n      state: State.Purchased\r\n    });\r\n  }\r\n\r\n\r\n  function getCourseCount()\r\n  external\r\n  view\r\n  returns(uint){\r\n    return totalOwnedCourses;\r\n  }\r\n\r\n  function getCourseHashAtIndex(uint index)\r\n  external\r\n  view\r\n  returns(bytes32){\r\n    return ownedCourseHash[index];\r\n  }\r\n\r\n  function getCourseByHash(bytes32 courseHash)\r\n  external\r\n  view\r\n  returns(Course memory){\r\n    return ownedCourses[courseHash];\r\n  }\r\n\r\n  function hasCourseOwnership(bytes32 courseHash)\r\n  private\r\n  view\r\n  returns(bool){\r\n    return (ownedCourses[courseHash].owner == msg.sender);\r\n  }\r\n\r\n  function setContractOwner(address newOwner) \r\n  private\r\n  {\r\n    owner=payable(newOwner);\r\n  }\r\n\r\n  function getContractOwner()\r\n    public\r\n    view\r\n    returns (address)\r\n  {\r\n    return owner;\r\n  }\r\n\r\n  function changeOwner(address newOwner)\r\n  external\r\n  onlyOwner\r\n  {\r\n      setContractOwner(newOwner);\r\n  }\r\n}\r\n\r\n",
  "sourcePath": "C:\\Users\\Shashi\\blockchain\\marketplace-eth1\\contracts\\CourseMarketplace.sol",
  "compiler": {
    "name": "solc",
    "version": "0.8.4+commit.c7e474f2.Emscripten.clang"
  },
  "schemaVersion": "3.4.14",
  "updatedAt": "2023-08-14T11:55:47.384Z",
  "networkType": "ethereum",
  "devdoc": {
    "kind": "dev",
    "methods": {},
    "version": 1
  },
  "userdoc": {
    "errors": {
      "CourseHasOwner()": [
        {
          "notice": "Course already has a Owner"
        }
      ],
      "OnlyOwner()": [
        {
          "notice": "onl Owner has access"
        }
      ]
    },
    "kind": "user",
    "methods": {},
    "version": 1
  }
}